S01B0000546F6E657246696C6C65725F6D695352545F312E73726563E5
S113000071C0000090C000008EC000008CC00000D1
S11300108AC0000088C0000086C0000084C00000C0
S113002082C0000080C000007EC000007CC00000D0
S11300307AC0000078C0000076C0000074C00000E0
S113004072C000000C94910B6EC000006CC00000E4
S11300506AC0000068C0000066C0000064C0000000
S113006062C0000060C000005EC000005CC0000010
S11300705AC0000058C0000056C0000054C0000020
S11300800C94A30B50C000004EC000004CC00000F4
S11300904AC0000048C0000046C0000044C0000040
S11300A042C0000040C000000C94B50B3CC00000EE
S11300B03AC0000038C0000036C0000034C0000060
S11300C032C0000030C000002EC000002CC0000070
S11300D02AC0000028C0000026C0000024C0000080
S11300E022C0000011241FBECFEFD1E2DEBFCDBF7E
S11300F000E00CBF13E0A0E0B2E0E6EDF0E200E0C7
S11301000BBF02C007900D92AE36B107D9F724E0B9
S1130110AEE6B3E001C01D92A333B207E1F70E943B
S11301205B0C0C9469106CCF89E08093810088EF9C
S1130130809391007894889A2FEF88EF95E121506D
S113014080409040E1F700C00000F89408958AE0F0
S11301508093910088EF8093810078948A9A2FE7A6
S11301608CEF9AE0215080409040E1F700C00000FD
S1130170F894089589E08093810088EF809391003A
S11301807894889A2FE787ED95E22150804090403B
S1130190E1F700C000008091700390917103019613
S11301A09093710380937003F894089589E0809389
S11301B0810088EF80939100789488982FE787EDE9
S11301C095E2215080409040E1F700C0000080910A
S11301D0700390917103019790937103809370035E
S11301E0F89408958AE08093910088EF80938100C9
S11301F078948A9A2FE781E397E1215080409040D8
S1130200E1F700C0000080916E0390916F030196A6
S113021090936F0380936E03F89408958AE080931B
S1130220910088EF8093810078948A982FE781E386
S113023097E1215080409040E1F700C00000809198
S11302406E0390916F03019790936F0380936E03F5
S1130250F89408958091EC039091ED03892B39F47F
S1130260A5DF8091EC039091ED03892BC9F35CDF4A
S11302701092ED031092EC038091EA039091EB034A
S1130280892B39F4CBDF8091EA039091EB03892B1E
S1130290C9F35DDF1092EB031092EA03089589E03D
S11302A08093810088EF809391007894889A2FEF4F
S11302B08DE292E2215080409040E1F700C00000BE
S11302C080917003909171030196909371038093D0
S11302D07003F894089589E08093810088EF8093F7
S11302E09100789488982FEF8DE292E2215080401B
S11302F09040E1F700C00000809170039091710379
S113030001979093710380937003F89408958AE0A1
S11303108093910088EF8093810078948A9A2FEFDC
S11303208EE994E2215080409040E1F700C0000043
S113033080916E0390916F03019690936F03809365
S11303406E03F89408952C9A22E02A95F1F700C0E0
S1130350289832E03A95F1F700C085B18130E9F38D
S113036028E180E090E0DC01289A32E03A95F1F748
S113037000C0880F991FAA1FBB1F289832E03A9526
S1130380F1F700C01C9B03C00196A11DB11D2150B3
S113039059F7289A22E02A95F1F700C0289832E00C
S11303A03A95F1F700C0BC01CD0180580895CBDF28
S11303B060938C0370938D0380938E0390938F03CB
S11303C024E630E040E050E00E94F80F20938803D8
S11303D03093890340938A0350938B030895EF92DB
S11303E0FF920F931F93AFDF24E630E040E050E02C
S11303F00E94F80F20938C0330938D0340938E0357
S113040050938F038091880390918903A0918A036C
S1130410B0918B0379018A01E81AF90A0A0B1B0BC4
S1130420C801B7010E94090F23E333E34BEE50E404
S11304300E94730E2DEC3CEC4CE45DE30E940F0E25
S113044026E434E946ED5FEB0E94950F0E94DB0E33
S11304508B0120E030E00093840310938503209304
S1130460860330938703CB011F910F91FF90EF9088
S11304700895719A22E02A95F1F700C0709832E04D
S11304803A95F1F700C08EB18130E9F328E180E0BC
S113049090E0DC01709A32E03A95F1F700C0880FE1
S11304A0991FAA1FBB1F709832E03A95F1F700C05C
S11304B0619B03C00196A11DB11D215059F7709A8B
S11304C022E02A95F1F700C0709832E03A95F1F7EE
S11304D000C0BC01CD0180580895CBDF6093800338
S11304E070938103809382039093830324E630E026
S11304F040E050E00E94F80F20937C0330937D038A
S113050040937E0350937F030895EF92FF920F93DD
S11305101F93AFDF24E630E040E050E00E94F80F84
S11305202093800330938103409382035093830389
S113053080917C0390917D03A0917E03B0917F0311
S113054079018A01E81AF90A0A0B1B0BC801B701E1
S11305500E94090F23E333E34BEE50E40E94730E31
S11305602DEC3CEC4CE45DE30E940F0E2DE433EFE4
S11305704EEC5FEB0E94950F0E94DB0E8B0120E096
S113058030E0009378031093790320937A03309337
S11305907B03CB011F910F91FF90EF900895FF9281
S11305A00F931F93CF93DF9380E28093080195DF2D
S11305B02FEF82E597E0215080409040E1F700C0A2
S11305C00000EFEFF5EA2EE0E150F0402040E1F7C3
S11305D000C000009ADF9093E7038093E6038FE75F
S11305E099EAE3E081509040E040E1F700C0000068
S11305F08CDF9093E7038093E603FFE729EA83E027
S1130600F15020408040E1F700C00000EFE1FEE43B
S11306103197F1F700C00000C091E603D091E703E1
S11306208091E8039091E903181619060CF4B0C000
S113063030C08091E6039091E7038C1B9D0B2091C1
S1130640E8033091E9038217930714F0F801F0826C
S11306505CDF9093E7038093E603FFE72FEA82E0F1
S1130660F15020408040E1F700C000008091E60393
S11306709091E7038C1B9D0B9C0122F422273327C6
S1130680281B390B8091E8039091E9032817390757
S113069084F280E2809308018091E6039091E7035D
S11306A08C1B9D0BAC0122F444275527481B590B86
S11306B02091E2033091E303240F351F3093E303C9
S11306C02093E2032091E8033091E903B9016E5CC1
S11306D07F4F641775075CF0A9014E5F5F4F4817A1
S11306E059072CF022503109821793073CF588D71B
S11306F060E070E081E090E088D78DE192E00E94B4
S1130700830B9FEFE3EDF0E39150E040F040E1F71D
S113071000C000008091760390917703FC01EE0FF6
S1130720FF1FE854FC4F20910402309105023183ED
S11307302083019690937703809376038FE19EE460
S11307400197F1F700C00000809104029091050226
S113075001969093050280930402EFE1FEE4319741
S1130760F1F700C000004CD760E070E081E090E059
S11307704CD78CE292E0C7D7FFEF29E688E1F1502D
S113078020408040E1F700C000001092080109C039
S113079080E38093080108E011E06894FF24F5F8F1
S11307A048CFDF91CF911F910F91FF9008959F92B1
S11307B0AF92BF92CF92DF92EF92FF920F931F936B
S11307C0CF93DF93E8E0F1E080818062808385DE6F
S11307D08FE19EE40197F1F700C00000E8DD8FE1AE
S11307E09EE40197F1F700C000009FEF20E782E04C
S11307F0915020408040E1F700C00000C3E0D0E009
S113080084DE9093E7038093E6039FEF22E587E07D
S1130810915020408040E1F700C00000219781F70B
S11308208FE19EE40197F1F700C00000C3E0D0E03F
S1130830D6DD9093E5038093E4039FE729EA83E000
S1130840915020408040E1F700C00000219781F7DB
S11308500091E6031091E703A090E403B090E50350
S11308604AE063EF73E0C8010E9436108FE19EE412
S11308700197F1F700C000004AE06BEF73E0C50197
S11308800E943610BDD660E070E081E090E0BDD6F5
S113089083EF93E038D760E070E082E090E0B5D673
S11308A08BEF93E030D79FEF23ED80E3915020400E
S11308B08040E1F700C00000C12CD12CE12CF12CC8
S11308C060E0C8E0D1E09924939484C0611106C02B
S11308D08881806188838881806888838091E60329
S11308E09091E703801B910B2091E8033091E90379
S11308F08217930734F088818F7E8883888180688B
S113090088838091E4039091E5038A199B092091DF
S1130910E8033091E9038217930734F088818061FA
S1130920888388818F778883F0DD9093E7038093B1
S1130930E603801B910B9C0122F422273327281BFA
S1130940390B8091E8039091E903AC01440F551FE2
S1130950440F551F840F951F8217930724F4F092B8
S1130960E703E092E603E090E603F090E7038FE10B
S11309709EE40197F1F700C0000031DD9093E50398
S11309808093E4038A199B099C0122F422273327CC
S1130990281B390B8091E8039091E903AC01440FC3
S11309A0551F440F551F840F951F8217930724F476
S11309B0D092E503C092E403C090E403D090E50331
S11309C09FE72FEA82E0915020408040E1F700C089
S11309D00000692D4091E8035091E9038091E603FA
S11309E09091E703801B910B9C0122F4222733276B
S11309F0281B390B241735070CF468CF8091E403C6
S1130A009091E5038A199B099C0122F4222733273C
S1130A10281B390B241735070CF458CFE8E0F1E014
S1130A2080818F7E808380818F778083C091E00373
S1130A30D091E1038091E6039091E703801B910B31
S1130A409C0122F422273327281B390BB90140913A
S1130A50E2035091E303240F351F3093E303209303
S1130A60E2034091E4035091E5034A195B099A01BA
S1130A7022F422273327241B350B2C0F3D1F3093E0
S1130A80E1032093E0032091E8033091E903A901F5
S1130A904E5C5F4F4617570754F04F5251094817A1
S1130AA059072CF0235031098217930734F5A8D540
S1130AB060E070E081E090E0A8D58DE192E023D67B
S1130AC09FEF23ED80E3915020408040E1F700C088
S1130AD000008091760390917703FC01EE0FFF1FD5
S1130AE0E854FC4F209104023091050231832083A5
S1130AF0019690937703809376038FE19EE40197A8
S1130B00F1F700C000002091E8033091E9038091DF
S1130B10E0039091E1038C1B9D0BA9014E5C5F4F98
S1130B204817590784F08091E4039091E5038A19EA
S1130B309B094F525109481759072CF0235031098A
S1130B408217930734F55CD560E070E081E090E0B3
S1130B505CD58AE392E0D7D59FEF23ED80E39150F3
S1130B6020408040E1F700C0000080917403909120
S1130B707503FC01EE0FFF1FE057FC4F20910402A8
S1130B8030910502318320830196909375038093FD
S1130B9074038091040290910502019690930502DA
S1130BA0809304028FE19EE40197F1F700C00000F6
S1130BB027D560E070E081E090E027D58CE292E0F8
S1130BC0A2D59FEF29E688E1915020408040E1F7CB
S1130BD000C00000DF91CF911F910F91FF90EF9023
S1130BE0DF90CF90BF90AF909F9008955F926F92E7
S1130BF07F928F929F92AF92BF92CF92DF92EF92A9
S1130C00FF920F931F93CF93DF93161617060CF0E2
S1130C104DC12091EA033091EB032115310509F40C
S1130C2042C044C18091EA039091EB03892B09F0FF
S1130C303DC17720B1F180910002909101020197AA
S1130C4079F42C2F30E080910202909103020197F5
S1130C502817390709F42AC1AADDD1E0DC0F0EC038
S1130C602C2F30E080910202909103020197281703
S1130C70390709F41BC193DCD1E0DC0F0530110501
S1130C8014F445DB01C0AEDA2FEF84E39CE021507D
S1130C9080409040E1F700C000002FEFC21AD20A52
S1130CA00FC0DC2F0DC08B017C015901712CD0E0E9
S1130CB0C12CD12C4B0181E0881A9108522E632E4D
S1130CC0C0FC0EC01E141F040CF0C3C08091EC03C2
S1130CD09091ED03892B09F0E9C0C1E0CD0F80C0EC
S1130CE01E141F040CF04BC08091EC039091ED0393
S1130CF0892B09F0DBC0C1E0CD0F08C0CF5F809124
S1130D00EC039091ED03892B09F0D0C08FEF8C0F89
S1130D1020910002309101022130310569F490E004
S1130D202091020230910302215031098217930766
S1130D3009F4BCC03CDD0CC090E02091020230916B
S1130D400302215031098217930709F4AFC027DC4D
S1130D500530110514F4BFDA01C028DA9FEF24E34B
S1130D608CE0915020408040E1F700C000008C2FBF
S1130D708D1B90E08E159F050CF4C0CF03C0852D0C
S1130D80962DCD2FE816F90609F089C0A814B904E8
S1130D9009F085C035D460E070E081E090E035D49E
S1130DA089E492E0B0D49FEF23ED80E3915020409A
S1130DB08040E1F700C000008091000290910102A0
S1130DC0019719F4F4DCCF5F6AC0E9DBCF5F67C039
S1130DD0CF5F8091EC039091ED03892B09F066C0FD
S1130DE08FEF8C0F209100023091010221303105E8
S1130DF069F490E0209102023091030221503109FC
S1130E008217930709F452C0D2DC0CC090E0209101
S1130E10020230910302215031098217930709F429
S1130E2045C0BDDB0530110514F439DA01C0A2D97F
S1130E309FEF24E38CE0915020408040E1F700C014
S1130E4000008C2F8D1B90E08E159F050CF4C0CFF5
S1130E5003C0852D962DCD2FE816F90601F5A814AB
S1130E60B904E9F4CDD360E070E081E090E0CDD343
S1130E7087E592E048D49FEF23ED80E39150204032
S1130E808040E1F700C000008091000290910102CF
S1130E90019719F48CDCCF5F02C081DBCF5F7394C0
S1130EA0A72CB12CA016B1060CF4BCCEDF91CF91C7
S1130EB01F910F91FF90EF90DF90CF90BF90AF9074
S1130EC09F908F907F906F905F900895CF93DF9362
S1130ED097D360E070E081E090E097D38AED92E0F0
S1130EE012D460E070E082E090E08FD38BE692E071
S1130EF00AD4C9E0D1E0888185FF1FC080917203C4
S1130F0090917303863991055CF083E090E09093AF
S1130F10F2038093F1039093F0038093EF0366C090
S1130F2083E090E09093F2038093F10385E090E0F6
S1130F309093F0038093EF0359C0888186FF29C002
S1130F408091720390917303059690937303809339
S1130F5072034AE063EF73E00E94361051D360E0FD
S1130F6070E081E090E051D38AED92E0CCD360E070
S1130F7070E082E090E049D383EF93E0C4D32FEF95
S1130F8082E597E0215080409040E1F700C00000E6
S1130F90B2CF888188230CF0AECF809172039091F8
S1130FA07303059790937303809372034AE063EF8E
S1130FB073E00E94361024D360E070E081E090E09A
S1130FC024D38AED92E09FD360E070E082E090E069
S1130FD01CD383EF93E097D32FEF82E597E0215062
S1130FE080409040E1F700C0000085CFDF91CF91B1
S1130FF00895CF93DF9304D360E070E081E090E044
S113100004D384E692E07FD360E070E082E090E075
S1131010FCD28AE692E077D38091EF039091F003BB
S11310200597BCF48CE090E0909303028093020255
S1131030E7D260E070E081E090E0E7D284E692E0FD
S113104062D360E070E082E090E0DFD28DE692E06F
S11310505AD3C9E0D1E0888185FD56C0888186FFD6
S113106028C080910202909103020196909303029A
S1131070809302024AE063EF73E0F8D7C1D260E0E4
S113108070E081E090E0C1D284E692E03CD360E07D
S113109070E082E090E0B9D283EF93E034D32FEF95
S11310A082E597E0215080409040E1F700C00000C5
S11310B0D2CF888188237CF680910202909103022A
S11310C0019790930302809302024AE063EF73E076
S11310D0CDD796D260E070E081E090E096D284E6CD
S11310E092E011D360E070E082E090E08ED283EF72
S11310F093E009D32FEF82E597E0215080409040A0
S1131100E1F700C00000A7CFDF91CF910895CF93FE
S1131110DF9376D260E070E081E090E076D280E701
S113112092E0F1D260E070E082E090E06ED28AE773
S113113092E0E9D2C9E0D1E0888185FD46C088818A
S113114086FF21C081E090E0909301028093000229
S113115057D260E070E081E090E057D280E792E0FF
S1131160D2D260E070E082E090E04FD28AE792E071
S1131170CAD22FEF82E597E0215080409040E1F7FA
S113118000C00000D9CF88818823B4F610920102F0
S11311901092000235D260E070E081E090E035D238
S11311A080E792E0B0D260E070E082E090E02DD27F
S11311B08FE792E0A8D22FEF82E597E0215080409C
S11311C09040E1F700C00000B7CFDF91CF910895C0
S11311D09FEF97B99093040181EE80930A0181E017
S11311E080930B01909307011092080190BB11BAF0
S11311F084B985B98DB98EB90895E1E6F0E080E847
S113120080831082089580E88093800089E0809331
S1131210810083E08093890087EE80938800EFE665
S1131220F0E08081826080831092850010928400B7
S1131230089580E8809390008CE080939100109250
S113124099008DE480939800E1E7F0E0808182606A
S113125080831092950010929400089580E8809302
S1131260A0008DE08093A1001092A9008BE98093E7
S1131270A800E2E7F0E08081826080831092A500FC
S11312801092A4000895672B09F0B1C0009711F4DF
S1131290109808958130910511F4119808958230C1
S11312A0910511F4129808958330910511F413985F
S11312B008958430910511F41498089585309105AA
S11312C011F4159808958630910511F4169808952F
S11312D08730910511F4179808958A30910511F417
S11312E0289808958B30910511F4299808958C302D
S11312F0910511F42A9808958D30910511F42B98D5
S113130008958E30910511F42C9808958F3091052D
S113131011F42D9808958031910511F42E980895B3
S11313208131910511F42F9808958431910511F4B8
S1131330409808958531910511F4419808958631B6
S1131340910511F4429808958731910511F4439859
S113135008958831910511F44498089589319105CF
S113136011F4459808958A31910511F44698089529
S11313708B31910511F4479808958E31910511F43C
S1131380589808958F31910511F459980895803231
S1131390910511F45A9808958132910511F45B98DE
S11313A008958232910511F45C9808958332910571
S11313B011F45D9808958432910511F45E980895AE
S11313C08532910511F45F9808958632910531F4C0
S11313D0E5E0F1E080818E7F80830895879709F0AE
S11313E0B5C0E5E0F1E080818D7F808308950097AA
S11313F011F4109A08958130910511F4119A089509
S11314008230910511F4129A08958330910511F4F4
S1131410139A08958430910511F4149A089585302F
S1131420910511F4159A08958630910511F4169AD0
S113143008958730910511F4179A08958A3091051B
S113144011F4289A08958B30910511F4299A08957E
S11314508C30910511F42A9A08958D30910511F478
S11314602B9A08958E30910511F42C9A08958F309B
S1131470910511F42D9A08958031910511F42E9A55
S113148008958131910511F42F9A089584319105BD
S113149011F4409A08958531910511F4419A089503
S11314A08631910511F4429A08958731910511F41A
S11314B0439A08958831910511F4449A0895893125
S11314C0910511F4459A08958A31910511F4469ACB
S11314D008958B31910511F4479A08958E31910541
S11314E011F4589A08958F31910511F4599A089579
S11314F08032910511F45A9A08958132910511F4BC
S11315005B9A08958232910511F45C9A08958332AE
S1131510910511F45D9A08958432910511F45E9A4F
S113152008958532910511F45F9A089586329105E4
S113153031F4E5E0F1E0808181608083089587974C
S113154029F4E5E0F1E08081826080830895CF93FF
S1131550C82F80FF06C061E070E084E190E093DE74
S113156005C060E070E084E190E08DDEC1FF06C05C
S113157061E070E085E190E086DE05C060E070E047
S113158085E190E080DEC2FF06C061E070E086E1A4
S113159090E079DE05C060E070E086E190E073DE03
S11315A0C3FF06C061E070E087E190E06CDE05C037
S11315B060E070E087E190E066DECF910895CF931C
S11315C0C82F60E070E086E290E05DDE8C2FBFDF24
S11315D061E070E087E290E056DE8FEC97E00197DF
S11315E0F1F700C0000060E070E087E290E04BDEBD
S11315F08FEC97E00197F1F700C00000CF910895B8
S113160080E0DDDF81E0DBCF0895CF93C62F81300A
S113161049F480E8860F82958F70D1DF8C2F8F700C
S1131620CEDF0AC0823041F480EC860F82958F7041
S1131630C6DF8C2F8F70C3DFCF91089580E087DFE2
S11316408FE39CE90197F1F700C0000083E0B7DF66
S11316508FE097E20197F1F700C0000083E0AFDF6D
S11316608FEE95E50197F1F700C0000083E0A7DF56
S113167082E0A5DF82E0A3DF88E0A1DF80E09FDFD6
S11316808CE09DDF80E09BDF86E099CF0895CF93C7
S1131690C82F61E070E086E290E0F5DD8C2F829542
S11316A08F7055DF61E070E087E290E0ECDD8FEC55
S11316B097E00197F1F700C0000060E070E087E276
S11316C090E0E1DD8FEC97E00197F1F700C00000B6
S11316D08C2F8F703CDF61E070E087E290E0D3DD17
S11316E08FEC97E00197F1F700C0000060E070E034
S11316F087E290E0C8DD8FEC97E00197F1F700C036
S11317000000CF910895CF93DF93EC018881882363
S113171029F02196BCDF89918111FCCFDF91CF9113
S113172008951F920F920FB60F9211248F939F93D7
S113173091B382E0892781BB9F918F910F900FBE57
S11317400F901F9018951F920F920FB60F921124AD
S11317508F939F9391B388E0892781BB9F918F9149
S11317600F900FBE0F901F9018951F920F920FB6F7
S11317700F9211240BB60F922F933F934F935F93C5
S11317806F937F938F939F93AF93BF93EF93FF9345
S11317908091EE038F5F8093EE03F8948091EE03C3
S11317A0823008F475C08091090184FD13C081B3AF
S11317B0805881BB2FEF82E597E021508040904014
S11317C0E1F700C000001CDF60E081E01EDF84E878
S11317D092E099DF15DF8091060180FF11C08091AE
S11317E0EC039091ED03892B59F488EF80938100E9
S11317F081E090E09093ED038093EC031092EE036C
S11318008091060181FF15C088EF80939100809339
S11318108100F6DE60E081E0F8DE8CE892E073DFC0
S11318202FE788E391E0215080409040E1F700C029
S113183000008091060182FF15C088EF809391001B
S113184080938100DDDE60E081E0DFDE84E992E008
S11318505ADF2FE788E391E0215080409040E1F780
S113186000C000008091060183FF11C08091EA034B
S11318709091EB03892B59F488EF8093910081E0D8
S113188090E09093EB038093EA031092EE03789434
S1131890FF91EF91BF91AF919F918F917F916F9144
S11318A05F914F913F912F910F900BBE0F900FBE00
S11318B00F901F901895CF93DF93CDB7DEB7609745
S11318C00FB6F894DEBF0FBECDBF8FE19EE4019743
S11318D0F1F700C000008FEF83BB14BA94DCA9DCDD
S11318E0BDDC76DC8ADCAADE9FEFE0E7F2E0915013
S11318F0E040F040E1F700C00000E8E0F1E0808162
S1131900806480837DDE60E081E07FDE8FEA92E0A8
S1131910FADE60E082E079DE8DEB92E0F4DE2FEF18
S113192083ED90E3215080409040E1F700C0000037
S11319300E942A01EFE7F8E321E0E150F040204063
S1131940E1F700C000005CDE60E081E05EDE85EC73
S113195092E0D9DE60E082E058DE8CE992E0D3DEEA
S1131960E9E0F1E0808185FFFDCF8FEF92E5E7E0CC
S113197081509040E040E1F700C00000A7DAFFEF9B
S113198022E587E0F15020408040E1F700C00000EC
S1131990BEDB9FEFE2E5F7E09150E040F040E1F775
S11319A000C0000026DB4AE063E274E08091720329
S11319B0909173035BD324DE60E081E026DE81ED49
S11319C092E0A1DE60E082E020DE83E294E09BDE30
S11319D02FEF83ED90E3215080409040E1F700C069
S11319E0000080E2809308010BDE09E011E06894B6
S11319F0662463F8772473940F2EF8EB2F2EF3E00C
S1131A003F2EF02D0F2EF0EEAF2EF3E0BF2EF02D73
S1131A100F2EF8EBCF2EF3E0DF2EF02D4424439469
S1131A20512C36C0F80180818823ACF44FDAFFEFE3
S1131A3022E587E0F15020408040E1F700C000003B
S1131A4066DB9FEFE2E5F7E09150E040F040E1F71C
S1131A5000C00000CEDA4AE063E274E080917203D1
S1131A609091730303D360E081E0CFDD82EE92E0D6
S1131A704ADE60E082E0C9DD83E294E044DE2FEFD9
S1131A8082E597E0215080409040E1F700C00000DB
S1131A90F801808185FFC6CFF30180818F7B80832D
S1131AA08F9AAEDD60E081E0B0DD82EF92E02BDE64
S1131AB060E082E0AADD83E294E025DE8091720397
S1131AC09091730302979093E9038093E8036091E4
S1131AD0EF037091F0038091F1039091F20386D8A3
S1131AE08FE19EE40197F1F700C000001092E30338
S1131AF01092E203710147014AE0BE016F5F7F4F1C
S1131B00F70180819181B2D2F70180819181181609
S1131B101906A4F475DD60E081E077DD88EF92E0DA
S1131B20F2DD60E082E071DDCE010196ECDDF801CA
S1131B30808185FFFCCFF40111821082FFEF24E342
S1131B408CE0F15020408040E1F700C0000092E0BA
S1131B50E90EF11CEA14FB0471F61092770310925B
S1131B6076031092E1031092E0030F2EF0E9EF2EBA
S1131B70F3E0FF2EF02D47014AE0BE016F5F7F4F77
S1131B80F7018081918172D2F701808191811816C9
S1131B901906A4F435DD60E081E037DD86E093E0EA
S1131BA0B2DD60E082E031DDCE010196ACDDF8010A
S1131BB0808185FFFCCFF40111821082FFEF24E3C2
S1131BC08CE0F15020408040E1F700C0000092E03A
S1131BD0E90EF11CEC14FD0471F6109275031092D9
S1131BE0740350920502409204021092ED03109285
S1131BF0EC031092EB031092EA03EFEFF1EE24E012
S1131C00E150F0402040E1F700C000000E942A01AA
S1131C108F98F3018081806480833ACF5058BB272A
S1131C20AA270ED048C139D130F03ED120F031F48A
S1131C309F3F11F41EF42EC10EF4E095E7FB24C17E
S1131C40E92F4AD180F3BA1762077307840795070F
S1131C5018F071F49EF562C10EF4E0950B2EBA2FC4
S1131C60A02D0B01B90190010C01CA01A00111249E
S1131C70FF27591B99F0593F50F4503E68F11A164A
S1131C80F040A22F232F342F4427585FF3CF4695DB
S1131C9037952795A795F0405395C9F77EF41F16FD
S1131CA0BA0B620B730B840BBAF09150A1F0FF0FC7
S1131CB0BB1F661F771F881FC2F70EC0BA0F621FB3
S1131CC0731F841F48F4879577956795B795F795A3
S1131CD09E3F08F0B3CF9395880F08F09927EE0F35
S1131CE09795879508950CD0E6C0DED040F0D5D006
S1131CF030F021F45F3F19F0C7C0511110C1CAC0C0
S1131D00EBD098F39923C9F35523B1F3951B550BE5
S1131D10BB27AA2762177307840738F09F5F5F4FBA
S1131D20220F331F441FAA1FA9F333D00E2E3AF0FB
S1131D30E0E830D091505040E695001CCAF729D015
S1131D40FE2F27D0660F771F881FBB1F2617370764
S1131D504807AB07B0E809F0BB0B802DBF01FF2794
S1131D6093585F4F2AF09E3F510568F08DC0D7C04D
S1131D705F3FECF3983EDCF3869577956795B795CE
S1131D80F7959F5FC9F7880F911D9695879597F9E9
S1131D900895E1E0660F771F881FBB1F6217730762
S1131DA08407BA0720F0621B730B840BBA0BEE1F77
S1131DB088F7E095089598D088F09F5790F0B92F50
S1131DC09927B751A0F0D1F0660F771F881F991F8C
S1131DD01AF0BA95C9F712C0B13081F09FD0B1E0C2
S1131DE008959CC0672F782F8827B85F39F0B93FD2
S1131DF0CCF3869577956795B395D9F73EF490958E
S1131E008095709561957F4F8F4F9F4F0895E8940B
S1131E1009C097FB3EF490958095709561957F4F2E
S1131E208F4F9F4F9923A9F0F92F96E9BB279395DC
S1131E30F695879577956795B795F111F8CFFAF4EC
S1131E40BB0F11F460FF1BC06F5F7F4F8F4F9F4F1D
S1131E5016C0882311F096E911C0772321F09EE87B
S1131E60872F762F05C0662371F096E8862F70E0E1
S1131E7060E02AF09A95660F771F881FDAF7880FBB
S1131E809695879597F9089597F99F6780E870E08C
S1131E9060E008959FEF80EC089500240A941616DC
S1131EA0170618060906089500240A941216130644
S1131EB0140605060895092E0394000C11F48823D2
S1131EC052F0BB0F40F4BF2B11F460FF04C06F5FEE
S1131ED07F4F8F4F9F4F089557FD9058440F551FC4
S1131EE059F05F3F71F04795880F97FB991F61F098
S1131EF09F3F79F087950895121613061406551F0F
S1131F00F2CF4695F1DF08C0161617061806991F7A
S1131F10F1CF86957105610508940895E894BB276F
S1131F2066277727CB0197F908950BD0C4CFB5DF87
S1131F3028F0BADF18F0952309F0A6CFABCF11240F
S1131F40EECFCADFA0F3959FD1F3950F50E0551F54
S1131F50629FF001729FBB27F00DB11D639FAA27FA
S1131F60F00DB11DAA1F649F6627B00DA11D661F49
S1131F70829F2227B00DA11D621F739FB00DA11D6A
S1131F80621F839FA00D611D221F749F3327A00D24
S1131F90611D231F849F600D211D822F762F6A2FC0
S1131FA011249F5750408AF0E1F088234AF0EE0F45
S1131FB0FF1FBB1F661F771F881F91505040A9F752
S1131FC09E3F510570F060CFAACF5F3FECF3983E7F
S1131FD0DCF3869577956795B795F795E7959F5FB9
S1131FE0C1F7FE2B880F911D9695879597F9089553
S1131FF0052E97FB16F400940FD057FD05D014D08E
S113200007FC02D046F408C05095409530952195C0
S11320103F4F4F4F5F4F0895909580957095619510
S11320207F4F8F4F9F4F0895A1E21A2EAA1BBB1B0F
S1132030FD010DC0AA1FBB1FEE1FFF1FA217B30790
S1132040E407F50720F0A21BB30BE40BF50B661FA6
S1132050771F881F991F1A9469F76095709580956A
S113206090959B01AC01BD01CF010895BB274A3077
S113207031F4992322F4BDE2909581959F4F01C0DC
S1132080BB27FB015527AA27880F991FAA1FA4174E
S113209010F0A41B83955051B9F7A05DAA3308F042
S11320A0A95DA193009779F7B111B1931192CB0176
S11320B000C0DC01FC01672F71917723E1F73297AF
S11320C004C07C916D9370836291AE17BF07C8F30F
S10920D00895F894FFCF0F
S11320D60100140001005A65726F20536574205A7A
S11320E665726F005A65726F205365740053756D7F
S11320F6206F766572666C6F77204C0046696C6C4F
S113210620436F6D706C6574650053756D206F7632
S11321166572666C6F77205200494E204178697368
S1132126204D696E757300494E20417869732050BD
S11321366C757300437570733A00323000313200A7
S113214643617061636974793A0046756C6C004842
S1132156616C6600414952204F4646004552524F33
S1132166522058004552524F5220590053656C650F
S11321766374205765696768743A004F5554006D57
S113218669535254204D616368696E6500496E69EE
S1132196742E2E2E006D6953525420526561647953
S11321A60053656C65637465642057656967687474
S11321B63A004E65772057656967687420536574DD
S11321C63A0046696C6C3A004661696C204C656657
S11321D674204F6E3A004661696C205269676874D0
S11321E6204F6E3A003430204772616D7320200010
S11321F63435204772616D732020003535204772CF
S1132206616D732020003635204772616D7320207E
S1132216003730204772616D732020003830204724
S113222672616D732020003930204772616D73200E
S11122362000313030204772616D73200000AB
S9030000FC
